:020000040800F2
:10000000280A0020AD01000847200008B91E00089A
:1000100045200008D902000851280008000000000F
:10002000000000000000000000000000F5220008B1
:10003000990300080000000049200008F72200088A
:10004000C7010008C7010008C7010008A120000877
:10005000C70100084B200008C7010008C7010008BD
:10006000C7010008C7010008C7010008C701000850
:10007000C7010008C7010008C7010008C701000840
:10008000C7010008C7010008C70100080000000000
:10009000000000000000000000000000C701000890
:1000A000C7010008C7010008C7010008B123000804
:1000B000C7010008C7010008C7010008C701000800
:1000C000C7010008C7010008C7010008AD200008EB
:1000D000C7010008C7010008F92700080000000058
:1000E000C7010008C7010008C701000800000000A0
:1000F000000000000000000000000000C701000830
:1001000000000000C7010008C7010008C70100087F
:1001100000000000000000000000000000000000DF
:10012000DD020008C7010008E9020008C701000855
:10013000C7010008000000000000000000000000EF
:10014000000000000000000000000000C7010008DF
:10015000C7010008C7010008C701000825280008DA
:10016000C7010008C70100080000000000000000EF
:10017000000000000000000000000000000000007F
:1001800000000000C701000800000000000000009F
:10019000C7010008C7010008DFF80CD000F08AF89A
:1001A00000480047392D0008280A002006488047EB
:1001B00006480047FEE7FEE7FEE7FEE7FEE7FEE74C
:1001C000FEE7FEE7FEE7FEE7952300089901000839
:1001D0002DE9F05F0546002092469B46884606467C
:1001E000814640241BE0284641464746224600F00F
:1001F00050F853465A46C01A914110D3114618463A
:10020000224600F037F82D1A67EB01084F462246C8
:100210000120002100F02EF817EB00094E41201EAE
:10022000A4F10104DFDC484631462A464346BDE8D6
:10023000F09FD2B201E000F8012B491EFBD27047BB
:100240000022F6E710B513460A4604461946FFF7A2
:10025000F0FF204610BD30B505460020034600E003
:100260005B1C934205D2EC5CC85C201A01D1002CC7
:10027000F6D130BD202A04DB203A00FA02F100203A
:1002800070479140C2F1200320FA03F319439040D4
:100290007047202A04DB203A21FA02F0002170473F
:1002A00021FA02F3D040C2F12002914008431946DE
:1002B00070470000064C074D06E0E06840F001037F
:1002C00094E8070098471034AC42F6D3FFF768FF74
:1002D0007C3000089C300008FEE70000014800F078
:1002E0006FB8000064050020014800F069B8000004
:1002F000C405002001681823CAB2103AB2FBF3F219
:10030000054B6FF30901032A9B5CC36500D9091DE6
:1003100081650846704700005A30000810B5014654
:1003200000208B698A6A4FF0C07453B1B3F5005F47
:1003300015D072B1012A0CD0022A0AD0032A09D1A1
:1003400004E01AB1012A06D0022A03D1C96AC90100
:1003500000D5012010BDC96AA142FAD010BD002A03
:10036000F7D0012AF2D0022AF3D0032AF3D010BD2D
:1003700030B50468256825F480252560046863602D
:100380008368402B036803D099600068C26030BD69
:100390009A600068C16030BD7047704790F83510B2
:1003A000022903D08021416501207047052180F892
:1003B00035100068016821F00101016000207047DC
:1003C0002DE9F84304464FF00009CDF8009063484A
:1003D0004FF41651A56D0068B0FBF1F72E6894F844
:1003E0005C10082000FA01F131420FD021680A6840
:1003F00052070BD50A6822F004020A6094F85C10D8
:100400008840A860606D40F00100606594F85C1061
:100410004FF0010808FA01F0304208D0216849691C
:10042000090604D5A860606D40F00200606594F88C
:100430005C1004208840304208D021680968890790
:1004400004D5A860606D40F00400606594F85C100D
:1004500010208840304218D021680968090714D557
:10046000A86020680168490304D50068000308D526
:10047000A16C07E00168C90503D4016821F00801F7
:100480000160216C09B12046884794F85C10202057
:100490008840304231D021680968C9062DD5A8604E
:1004A00094F8350005282068016806D0490347D52F
:1004B000006800031DD4616C1CE021F0160101608E
:1004C0002068416921F080014161206C08B9A06C6D
:1004D00020B12068016821F00801016094F85C10E7
:1004E0003F208840A86084F8349084F83580216DDE
:1004F0001FE0E16B09B120468847606D00282BD0D2
:10050000606DC00714D0052084F8350020680168AC
:1005100021F0010101600098401C0090B84203D80E
:1005200020680068C007F6D184F8349084F83580DC
:10053000E16C002910D001B02046BDE8F043084727
:100540000168C905D5D4016821F01001016084F863
:10055000349084F83580CCE7BDE8F8830C000020A7
:100560002DE9F041044600F067F906465CB100252C
:1005700084F83450022084F835002068016821F0A6
:10058000010101600DE00120BDE8F08100F054F9A7
:10059000801B052805D920206065032084F83500DC
:1005A000F2E720680068C007F0D12268116820488F
:1005B0000140D4E901031843D4E903363343184317
:1005C00063691843A3691843E3691843236A18430E
:1005D0000843616A042903D1D4E90B131943084382
:1005E000106020684069666A20F0070130460E43BB
:1005F000012704280CD1A06A0643E06A40B12046D6
:10060000FFF78CFE20B14020606584F83570BAE7B2
:10061000206846612046FFF76DFE94F85C203F217C
:1006200091408160656584F835700020ACE700007A
:100630003F8010F02DE9F0410446866D90F83400BB
:10064000002501280DD0012084F8340094F835707D
:100650000020012F07D084F8340002252846BDE889
:10066000F0810220FBE7022784F8357060652046A0
:10067000FFF77EFE94F85C103F208840B060206851
:10068000016841F016010160206C20B1206801680A
:1006900041F0080101602068016841F0010101603A
:1006A000DCE700002DE9F84F00224FF00108032598
:1006B0004FF00F0E0B6808FA02F42340A34271D1E9
:1006C0004E68012E05D0022E03D0112E01D0122E1D
:1006D00015D18668570005FA07FC26EA0C06D1F802
:1006E0000CC00CFA07FC4CEA060CC0F808C04668BF
:1006F000A6430C79C4F30014944034434460C668A4
:10070000570005FA07FC8C6826EA0C06BC40344307
:10071000C4604C68022C01D0122C13D1D40800EB19
:100720008404A346D4F8209054074FEAD46A0EFA02
:100730000AF629EA06090E6906FA0AF646EA0906E1
:10074000CBF8206004680E7924EA0C0406F0030656
:10075000BE40264306604C68E40056D52E4C266801
:1007600046F480462660246822F0030604F48044A0
:1007700000942A4C3444A446D4F808489607370F0E
:100780000EFA07F6B443264EB04201D1002615E01A
:10079000244EB04201D1012610E0234EB04202D1D6
:1007A00002260BE031E0214EB04201D1032605E0E4
:1007B0001F4EB04201D1042600E00726BE4026436A
:1007C000CCF808681B4E34684F689C43FF0300D583
:1007D0001C433460174E361D34684F689C43BF037A
:1007E00000D51C433460134E083634684F689C4370
:1007F000FF0200D51C4334600E4E0C3634684F683F
:100800009C43BF0200D51C433460521C102AFFF4E5
:1008100051AFBDE8F88F000044380240003001407D
:10082000000002400004024000080240000C0240A8
:1008300000100240003C0140014880687047000001
:1008400000000020024881680278114481607047EE
:10085000000000200B4810B5016841F400710160F0
:10086000016841F480610160016841F480710160B8
:10087000032000F07BF8002000F006F800F024F8D8
:10088000002010BD003C024070B50D4D04464FF4F1
:100890007A712878B1FBF0F00A490968B1FBF0F0F1
:1008A00000F080FF48B9102C07D200222146501ECC
:1008B00000F03CF800206C6070BD012070BD0000AD
:1008C000000000200C000020104808B5016841F429
:1008D00080410160006800F4804000900B48001FD8
:1008E000016841F080510160006800F08050009084
:1008F000072000F03BF800221146052000F016F812
:10090000BDE80840052000F003B80000443802406C
:10091000002809DB00F01F020121914040098000FE
:1009200000F1E020C0F8001170470000F0B40E4B59
:100930001B680C46C3F30223C3F10705042D00D93D
:100940000425191D072901D2002300E0DB1E012622
:1009500006FA05F1491E214099409E40761E164038
:100960003143F0BC01F086BF0CED00E0064900F019
:10097000070208684FF6FF03184040EA0220034AC6
:1009800010430860704700000CED00E00000FA051D
:100990002DE9F843044600684FF00109C1074FF004
:1009A000000601D1400729D5DFF82081C8F868602A
:1009B000FFF742FF0746464D05E000BFFFF73CFF4B
:1009C000C01B022859D828680001F7D4A068217BF1
:1009D000800140EA0170616808433D498431086044
:1009E000C8F86890FFF728FF074604E0FFF724FFE8
:1009F000C01B022841D828680001F7D5207880075D
:100A000052D533484030016841F0805101600068A0
:100A1000304D00F080500090286840F480702860CD
:100A2000FFF70AFF074604E0FFF706FFC01B022896
:100A300023D82868C005F7D5254D7035286810F4EF
:100A4000407020D0218A01F4407181421BD0286877
:100A5000214920F44070C1F800900E602860286899
:100A6000C00710D0FFF7E8FE064641F2883707E0DE
:100A7000FFF7E2FE801BB84202D90320BDE8F883ED
:100A800028688007F4D521691148C1F30122083094
:100A9000032A12D0016821F4F81101602868218A24
:100AA000C1F30B01084328602078000703D50B49E8
:100AB000207DC1F8E0010020E0E70268084B22F445
:100AC000F81219400A430260E8E7000000004742BC
:100AD0000038024000700040400E4742001047427C
:100AE000FFFCFF0F2DE9F0470E46050065D0DFF84B
:100AF0001481D8F80000F7B200F00F00B04207D21E
:100B000088F80070D8F8000000F00F00B04254D10F
:100B100028683D4C810712D5400703D5206840F472
:100B2000E05020602878000703D5206840F460403A
:100B300020602068A96820F0F00008432060287831
:100B4000C0072DD0304968680839012812D0022822
:100B500013D0032811D00968890700292DDA2168EC
:100B600021F0030101432160FFF766FE814641F257
:100B7000883A0EE009688903EFE709688901ECE724
:100B8000FFF75AFEA0EB0901514502D90320BDE849
:100B9000F0872068696800F00C00B0EB810FEFD19E
:100BA000D8F80010404601F00F01B14207D9077094
:100BB000006800F00F00B04201D00120E7E728787C
:100BC000400705D52068E96820F4E050084320601C
:100BD0002878000706D52068296920F4604040EA9B
:100BE000C100206000F038F82168084AC1F3031101
:100BF000515CC8400649086006480068FFF744FE9B
:100C00000020C4E7003C024008380240623000087F
:100C10000C00002004000020044805490068096811
:100C2000044AC1F38221515CC84070470C00002087
:100C30000838024072300008044805490068096815
:100C4000044AC1F34231515CC84070470C00002097
:100C50000838024072300008154810B5006810F0DE
:100C60000C02144813D04110042A0FD0082A0ED1C8
:100C70000F4C241F2268236802F03F025B0207D555
:100C80002068C0F38810A0FB010106E0084610BDF3
:100C90002168C1F38811A1FB00010023FFF798FA36
:100CA0002168C1F30141491C4900B0FBF1F010BDBE
:100CB000083802400024F4002DE9F84F040076D0F3
:100CC0002078DFF838A3CE4DC00749D0DAF80010FD
:100CD0005046C1F38101012908D00068C0F38100AA
:100CE00002280AD1281D0068400206D52868800322
:100CF00036D560680028E2D032E06068B0F5803F09
:100D000010D0B0F5A02F286810D020F480302860D3
:100D1000286820F4802028606068A0B1FFF78CFD6F
:100D200006460CE0286840F48030F4E740F4802068
:100D30002860F7E7FFF780FD801B642873D82868D8
:100D40008003F7D50CE0FFF777FD064605E000BF0E
:100D5000FFF772FD801B6428F0D828688003F7D461
:100D60002078DFF8A08280074FF000093ED5DAF83E
:100D70000010504611F00C0F09D00068C0F381003C
:100D800002280BD19D48001F0068400206D4286845
:100D9000800715D5E068012809D111E0E068B8B1F5
:100DA0000120C8F80000FFF747FD064605E020E1F6
:100DB000FFF742FD801B0228C0D828688007F7D5BE
:100DC0002868216920F0F80040EAC10028600DE0A1
:100DD000C8F80090FFF730FD064604E0FFF72CFD51
:100DE000801B02281FD828688007F7D420780007C6
:100DF00022D5824E844861696C3671B1012101604F
:100E0000FFF71AFD074604E0FFF716FDC01B022896
:100E100009D830688007F7D50EE0C0F80090FFF7DA
:100E20000BFD074605E082E0FFF706FDC01B022828
:100E30007DD830688007F7D42078400768D5DFF880
:100E4000BCB100270BF1380BDBF80000C0000BD45D
:100E5000DBF8001041F08051CBF80010DBF8000007
:100E6000012700F080500090684E3068C00510D413
:100E7000306840F480703060FFF7DEFC009005E0E1
:100E8000FFF7DAFC0099401A022850D83068C005F4
:100E9000F6D55A4EA068683601280FD0052830686C
:100EA00010D020F001003060306820F00400306085
:100EB000A068B8B1FFF7C0FC00900FE0306840F0C8
:100EC0000100F4E740F004003060F7E7FFF7B4FCFE
:100ED0000099411A41F28830814266D83068800713
:100EE000F4D50EE0FFF7A8FC009007E0FFF7A4FCA4
:100EF0000099411A41F28830814256D83068800703
:100F0000F4D42FB1DBF8001021F08051CBF80010A1
:100F1000A069D0B3DAF800205146C2F38102022A58
:100F20004AD00228484607D0C8F8600000E03CE0FC
:100F3000FFF782FC04463BE04746C8F86000FFF735
:100F40007BFC064605E000BFFFF776FC801B02280D
:100F50002BD828688001F7D4D4E907010843A16A97
:100F60002B4A490802EB0141626A41EA82110843B7
:100F700094F82C1040EA01612048001F0160012014
:100F80003866FFF759FC044605E034E0FFF754FCEF
:100F9000001B022809D828688001F7D52BE000BF84
:100FA000FFF74AFC001B022802D90320BDE8F88F96
:100FB00028688001F4D41EE00128F7D00868E269AF
:100FC00000F48001914214D1226A00F03F01914265
:100FD0000FD147F6C071626A0140914209D1A26AFD
:100FE00000F44031914204D1E16A00F0706088421F
:100FF00001D00120DAE70020D8E7000008380240DD
:101000000038024000004742800E47420070004016
:101010000000FFFF2DE9F8478946017F924601292C
:1010200028D001260677022141770268CA21516241
:10103000016853224A6201688A68324D52054FF0B6
:1010400000032D684FF0FF044FF003074FF4FA4CF4
:1010500013D5B5FBFCF24FF47A7802FB08F200924C
:10106000B2F10108CDF8008016D3CA68520704D542
:101070004246F5E70220BDE8F8878A6822F48062DC
:101080008A60B5FBFCF14FF47A725143009101681C
:10109000009A551E009504D24C62477703770320CF
:1010A000E9E7CA685207F3D5C1F8149001688A6865
:1010B00022F007028A6001688A6842EA0A028A60AE
:1010C00011490A6842F480020A600F4908310A682F
:1010D00042F480020A600168CA6802F0800262F489
:1010E0009062CA6001688A6842F480428A6001683E
:1010F0008A6842F480628A6001684C6246770377AE
:101100000020B8E70C000020003C014070470000C0
:1011100010B504460068C068400509D52046FFF7B1
:10112000F5FF2068C16801F0800161F49061C16041
:1011300003494FF4800008600120607710BD000073
:10114000143C014070B5040002D0607F10B106E08D
:10115000012070BD00202077204600F049F80220D1
:1011600060772168CA20486221685320486220467F
:1011700000F078FFFF25042618BB206881681B4A11
:10118000114081602168886862681043D4E90423B3
:101190001A43104388602168E0680861206801698B
:1011A000228941EA024101612068C16821F0800181
:1011B000C16020688068800607D4204600F00AF9E4
:1011C00018B1206845626677C2E72068016C21F497
:1011D000802101642068016CA269114301642068C8
:1011E000456201206077002070BD0000BFFF8FFFC7
:1011F00010B50068084988420CD1084901200860F0
:10120000002211460320FFF791FBBDE810400320A8
:10121000FFF77EBB10BD0000002800403C0E474297
:101220002DE9F0470446007F0B4601281FD04FF000
:10123000010984F81C9002206077DAB19878D97897
:1012400040EA014558781978000240EA41300543E8
:101250002168CA204862216853204862204600F075
:1012600001FF0026FF274FF0040860BB1AE00220B0
:10127000BDE8F0875878C10603D500F0EF000A30CA
:101280005870D87800F0E2FE0204587800F0DEFED4
:1012900042EA0022987800F0D9FE0243187842EA28
:1012A0004035D5E70F480540206845602068C16893
:1012B00021F08001C1602068806880060AD4204641
:1012C00000F088F830B12068476284F81D802677E6
:1012D0000120CDE72068476284F81D902677002022
:1012E000C6E700003FFFFF002DE9F0470446007FFE
:1012F0000D46012827D04FF0010A84F81CA00220D7
:1013000060772068002680684FEA4060F2B10028CC
:1013100000DBEE70A878297840EA01476878E97820
:10132000000240EA014007432168CA204862216860
:1013300053204862204600F095FE4FF0FF084FF022
:101340000409A0BB16E00220BDE8F087002800DBFE
:10135000EE70287800F07AFE0204687800F076FEDD
:1013600042EA0022A87800F071FE0243E87842EADF
:101370000047D9E716480740206807602068816861
:1013800021F480218160D5E90301084321688A683E
:10139000104388602068C16821F08001C160206826
:1013A000806880060BD4204600F014F838B121681C
:1013B000C1F8248084F81D9026770120C4E72168B5
:1013C000C1F8248084F81DA026770020BCE7000027
:1013D0007F7F7F0070B504460068C16821F0A001DE
:1013E000C160FFF729FA05464FF47A7607E000BF9F
:1013F000FFF722FA401BB04201D9032070BD2068DC
:10140000C0688006F4D5002070BD704738B501680B
:1014100004464A688868C043430606D5C30704D11A
:10142000D3435B0601D4216C05E0830708D4D34382
:101430001B0605D4616C01B02046BDE8304008476A
:10144000830603D5430601D5C30551D4D3439B0678
:101450004ED443060AD494F85130032B49D0636D1F
:1014600043F004036365CB688B680093830609D45B
:10147000636D43F0010363658B6800930B6823F091
:1014800040030B60C00506D4606D40F00800606545
:10149000206880680090606D002829D0206841682D
:1014A00021F0E0014160012084F85100900701D44F
:1014B000D00722D02068416821F003014160114D1E
:1014C000E06C40B10565E06CFEF768FF18B1606D37
:1014D00040F040006065A06C002809D00565A06C54
:1014E000FEF75CFF002803D0606D40F040006065AF
:1014F00038BDC8688868009038BD2046FFF785FF72
:1015000038BD0000B920000870B5040005D00025E2
:10151000A56294F8510010B106E0012070BD84F876
:101520005050204600F030F8022084F85100206826
:10153000016821F040010160D4E901010843D4E9C8
:1015400003121143084361690843218B01F40071C0
:101550000843E1690843216A0843A16A08432168F6
:101560000860A069042101EA1040616A084321680B
:1015700048602068C16921F40061C161656501208E
:1015800084F85100002070BD2DE9F04186B0064678
:1015900014216846FEF754FE3149306888425BD119
:1015A00030480024016841F480510160006800F473
:1015B000805005902B481438016841F0010101600A
:1015C0000068694600F001000590F02000900220BC
:1015D000CDE9010403200390052004902248FFF781
:1015E00061F8234D21484FF4806728604FF0C060B8
:1015F000C5E90104C5E903476C614FF40038AC61EB
:10160000C5E9074828466C62FEF7AAFF08B1FEF755
:10161000C4FEF564AE631548164D303005F108017F
:1016200028604FF080606860402081E891006C6124
:10163000AC61C5E9074828466C62FEF791FF08B126
:10164000FEF7ABFEB564002211462320AE63FFF720
:101650006DF92320FFF75CF906B0BDE8F0810000CA
:101660000030014044380240000002401064024053
:1016700064050020C4050020704770472DE9F04143
:10168000044690F85000002601280DD0012784F868
:10169000507094F851000025D4F804C001280FD0F0
:1016A000BCF5827F0AD102E00220BDE8F081D4F8C7
:1016B00008C0BCF1000F01D1042801D0022660E06F
:1016C00049B342B33BB394F85100042802D005203B
:1016D00084F8510065652163A386E386A263A3872E
:1016E000E3872564656494F85100042815D0E16C03
:1016F000264808642648E16CC863E16C2548C86444
:10170000E06C0565E38F2168A26B0C31E06CFEF79D
:1017100091FFE0B906E0012633E0E16C1E48086461
:101720001E48E8E72068416841F001014160A06C73
:101730000564A06CC563A06CC564A06C0565E38EF0
:101740002268216B0C32A06CFEF774FF38B1606D1B
:1017500040F010006065012684F8517011E02068A7
:101760000168490603D4016841F040010160206826
:10177000416841F0200141602068416841F0020168
:10178000416084F8505030468FE70000F520000893
:1017900053210008C9200008EB200008FF200008A2
:1017A0007047704710B5401EB0F1807F01D3012013
:1017B00010BD4FF0E02460610F21601701F05AF86E
:1017C0000020A06107202061002010BD70477047F5
:1017D00070B590F83C20012A2CD0012480F83C40C0
:1017E000022280F83D2003685A689D6822F0700646
:1017F0000A6832435A60104B02689A420ED0B2F126
:10180000804F0BD00D4B9A4208D00D4B9A4205D019
:101810000C4B9A4202D00C4B9A4204D1496825F0F5
:1018200080031943916080F83D40002180F83C100E
:10183000084670BD022070BD000001400004004059
:1018400000080040000C00400040014010B50400BA
:1018500003D094F83D0010B107E0012010BD002036
:1018600084F83C00204600F00DF8022084F83D008A
:10187000211D206800F0A2FD012084F83D00002019
:1018800010BD000008B500680B49884212D10B4812
:10189000016841F0010101600068002200F00100D0
:1018A000009011461B20FFF741F8BDE808401B20BF
:1018B000FFF72EB808BD0000000001404438024088
:1018C00070B5044690F83C00012817D0012584F833
:1018D0003C50022084F83D002068826822F07702A4
:1018E00022F47F4282600868502830D00DDC202826
:1018F0004DD005DC98B310283BD148E0022070BDE4
:10190000302844D0402834D139E0602828D07028CD
:1019100006D0B0F5805F2CD0B0F5005F29D10AE089
:10192000CB68D1E90121206800F094FD206881682E
:1019300041F0770109E0CB68D1E90121206800F08E
:1019400089FD2068816841F48041816011E0CA68A6
:101950004968206800F0D3FD5021206807E016E0B8
:10196000CA684968206800F0DBFD6021206800F04B
:101970007BFD84F83D50002084F83C0070BDCA68AF
:101980004968206800F0BBFD40212068EFE722682D
:1019900001461046EBE7704770B5044600680169E0
:1019A0004FF00005C943890715D4C168C9438907A9
:1019B00011D4E91E01610120207720688069800729
:1019C000204602D0FFF7E7FF04E000F098F8204639
:1019D00000F096F8257720680169C943490717D4B4
:1019E000C168C943490713D46FF0040101610220A3
:1019F00020772068806910F4407F204602D0FFF7EE
:101A0000CAFF04E000F07BF8204600F079F8257763
:101A100020680169C943090716D4C168C943090789
:101A200012D46FF008010161042020772068C0699A
:101A30008007204602D0FFF7AEFF04E000F05FF819
:101A4000204600F05DF8257720680169C943C90682
:101A500017D4C168C943C90613D46FF010010161DE
:101A6000082020772068C06910F4407F204602D00B
:101A7000FFF791FF04E000F042F8204600F040F844
:101A8000257720680169C943C90708D1C168C943DE
:101A9000C90704D1891E0161204600F032F8206890
:101AA0000169C943090609D4C168C943090605D4B7
:101AB0006FF0800101612046FFF788FE2068016910
:101AC000C943490609D4C168C943490605D46FF022
:101AD00040010161204600F040F820680169C943D7
:101AE00089060BD4C168C943890607D46FF0200169
:101AF00001612046BDE87040FFF769BE70BD7047C8
:101B00007047704770B5044690F83C00012812D029
:101B1000012584F83C50022084F83D00204600F066
:101B2000ABFC01004FF0000007D084F83D5084F872
:101B30003C00012070BD022070BD2168CA6822F0FF
:101B40004002CA602168CA6822F48042CA6084F8F0
:101B50003D5084F83C00002070BD70477047000085
:101B600070B5026804461068D168536910F00F0F11
:101B700052D003F0010501F490762E435FD0C207E6
:101B800005D0CA0503D5E26B42F00102E2634207C9
:101B900005D5DA0703D0E26B42F00202E263820766
:101BA00005D5DA0703D0E26B42F00402E2630207D4
:101BB00007D501F020022A4303D0E26B42F008026D
:101BC000E263E26B002A33D0800604D5880602D592
:101BD000204600F0CDFC20684069E16BC0F3801026
:101BE000090700D428B3204600F0B4FC20684169FE
:101BF00049061AD5416921F040014161606BA0B1ED
:101C00001B490165606BFEF7C9FB002810D0606BB3
:101C1000016DBDE870400847830610D58B060ED5D0
:101C20002046BDE8704000F0A3BC2046FFF796FFB9
:101C300070BD2046FFF792FF0020E06370BD0306F1
:101C400006D50B0604D52046BDE8704000F070BDF7
:101C50004006F3D54806F1D5D168204621F0400171
:101C6000D160202184F8391000F025F970BD000002
:101C70004525000870B5040004D094F8390000250B
:101C800010B106E0012070BD84F83850204600F005
:101C900023F8242084F839002068C16821F4005119
:101CA000C160204600F0B0FC2068016921F4904139
:101CB00001612068416921F02A0141612068C16801
:101CC00041F40051C160E563202084F8390084F8B4
:101CD0003A00002070BD000030B587B004461421E2
:101CE0006846FEF7ADFA2B4D226800212A480223F0
:101CF0000324AA4223D1284A1032156845F400353E
:101D00001560126802F400320592026842F0010286
:101D100002600068CDE9021400F0010005900C207B
:101D2000CDE900030720049069461C48FEF7BAFC81
:101D3000002211462620FEF7F9FD262025E0184D49
:101D4000AA4224D1144A1432156845F020051560C2
:101D5000126802F020020592026842F0040202605A
:101D60000068CDE9021400F004000590C020CDE920
:101D700000030820049069460A48FEF793FC0022FD
:101D800011464720FEF7D2FD4720FEF7C1FD07B000
:101D900030BD0000004400403038024000000240E6
:101DA000001401400008024090F83A30202B22D164
:101DB000F9B1F2B190F83830012B1CD081628285E4
:101DC000C2850021C163222280F83A2080F83810B1
:101DD0000168CA6842F48072CA6001684A6942F0C8
:101DE00001024A610068C16841F02001C160002021
:101DF0007047012070470220704770472DE9F84373
:101E0000044690F839001F4616460D46202850D14A
:101E1000B5B1AEB194F8380001284AD0012084F859
:101E200038004FF00008C4F83C80212084F83900C5
:101E3000FEF702FDA6848146E68484F8388026E019
:101E40000120BDE8F883E08C401EE084A0684B468A
:101E5000B0F5805F4FF000024FF080012046009700
:101E600003D000F096FCE8B90DE000F092FCC8B990
:101E700028882168C0F308004860206908B16D1CFB
:101E800005E0AD1C03E0216815F8010B4860E08C0B
:101E90000028D8D14B46002240212046009700F070
:101EA00078FC08B10320CCE7202084F8390000201A
:101EB000C7E70220C5E77047FEE7000000B587B01E
:101EC00014216846FEF7BCF916480021026842F06A
:101ED00004020260026802F004020592026842F005
:101EE00080020260026802F080020592026842F0FD
:101EF00001020260026802F001020592026842F0EB
:101F000002020260006800F0020005904FF40050E9
:101F100000900548CDE9010169460448FEF7C2FB7F
:101F200007B000BD30380240000021100008024018
:101F300010B586B014216846FEF782F919480024CE
:101F400017490594C0E900147F218160FF21C0E991
:101F5000031444618461FFF7F5F88DF800408DF8B3
:101F600001408DF802400394012269460D48049413
:101F7000FFF7BAF901208DF814008DF815008DF8DF
:101F8000160002468DF8174005A90648FFF748F9E4
:101F9000002211460348FFF73DF806B010BD0000CF
:101FA00000280040140000200C480B494FF4802208
:101FB00001604FF48271416000218160C160016164
:101FC000C0E905122022C0E90721416281620A218D
:101FD000C162FFF799BA00000030014034000020D0
:101FE00010B58CB00024059406940794142168461B
:101FF0000894FEF725F91248099410490A94C0E99B
:1020000000148460C460046144618461FFF71EFCB5
:102010004FF48050059005A90948FFF751FC0620B0
:10202000CDE9000469460648FFF76CFD099409A94B
:1020300003480A94FFF7CCFB0CB010BD0000014030
:102040008C000020FEE7704770477047002102E0D7
:102050000A38C0B2491C0A28FAD2090740EA1160BE
:102060007047000070B504460068C168490614D482
:102070004FF0FF31C160FEF7DFFB05464FF47A7683
:1020800007E000BFFEF7D8FB401BB04201D9032098
:1020900070BD2068C0684006F4D5002070BD000007
:1020A0000148FFF735B80000140000200148FFF791
:1020B000ADB900003400002010B5806B0021C1874D
:1020C000C186FFF7A2F910BD10B5806B01684A68A0
:1020D00022F003024A60416D41F010014165012187
:1020E00080F85110FFF791F910BD10B5806BFFF724
:1020F000C4FA10BD10B5806BFFF753FB10BD70B56F
:102100000546846BFEF798FB024628680068C00508
:102110001BD42068416821F020014160206841689B
:1021200021F0030141606421204600F03FF808B12E
:10213000202060650020E087012084F85100606D58
:1021400018B12046FFF761F970BD2046FFF794FAF9
:1021500070BD70B50546846BFEF76EFB02462868BD
:102160000068C0051ED42068416821F0200141604C
:102170006421204600F048F818B1606D40F020005E
:1021800060652068416821F0030141600020E0861D
:10219000E087012084F85100606D18B12046FFF7F8
:1021A00034F970BD2046FFF7FBFA70BDF8B5044660
:1021B00040684FF48273984221D1A0684FF4806543
:1021C000B0F5004F01D0A8420AD12068066826F079
:1021D000400606606068984211D1A068A8420ED0FF
:1021E00000920B4600228021204600F039F800289A
:1021F00004D0606D40F0200060650320F8BD0092BF
:102200000B4600220121EFE738B504461248134B74
:102210000068B0FBF3F04FF47A73584300906068A5
:10222000B0F5827F0DD10B4600920022802120461E
:1022300000F016F870B1606D40F02000606503207A
:1022400038BD009830B1401E009020688068C043BF
:102250000006F6D5002038BD0C00002000366E01C7
:102260002DE9F0411D4617460E460446DDF818805C
:1022700008E0681C06D0FEF7DFFAA0EB0800A842D1
:102280000BD255B12068806836EA000030D00020BB
:10229000B842EED10020BDE8F0812068416821F00D
:1022A000E00141606068B0F5827F0BD1A068B0F5B5
:1022B000004F02D0B0F5806F04D12068016821F092
:1022C00040010160A06AB0F5005F09D12068016893
:1022D00021F4005101602068016841F4005101605F
:1022E000012084F85100002084F850000320D2E738
:1022F0000120CDE77047FEF7A5BA000030B599B0D0
:1023000030216846FDF79CFF14210CA8FDF798FFCB
:10231000182111A8FDF794FF1C480024016841F022
:1023200080510160006800F08050179018480168E3
:1023300041F4404101600068012100F440401790E1
:102340000A2000901020CDE90310CDE907404FF49A
:10235000A870099004200A900B900225CDE905157C
:102360006846FEF7A9FC0F20CDE90C05E802CDE98F
:102370000E4002210CA81094FEF7B4FB2802159021
:10238000119511A8FEF704FB19B030BD403802408A
:10239000007000400548016841F470010160034984
:1023A0004FF00060803908607047000088ED00E061
:1023B0000148FFF7F1BA00008C000020F0B5026878
:1023C0001D4B1E4C9F031E4D1E4E984207D0B84217
:1023D00005D0A04203D0A84201D0B04204D122F0DF
:1023E000700C4A6842EA0C02984210D0B8420ED0F3
:1023F000A0420CD0A8420AD0B04208D0124CA04251
:1024000005D0124CA04202D0114CA04203D122F4BC
:102410004074CA6822434C6922F080022243026061
:102420008A68C2620A688262984201D109690163BE
:1024300001214161F0BD00000000014000040040A6
:1024400000080040000C00400040014000440140F2
:102450000048014010B5846842EA032224F47F4416
:102460000A432243826010BD826822F070020A4350
:1024700042F007018160704710B503689A6822F046
:1024800070044A68224322F007040A6822439A60D3
:102490004A6812F00F0F30D11211082A2DD2DFE84E
:1024A00002F02C2C2C2C0B2127040B69D1E90221E2
:1024B0000068FFF7CFFF20E00A68052A10D0026805
:1024C000136A146A24F001041462026894690969A9
:1024D00024F0F00444EA01119161006803620CE009
:1024E000012010BD0A698968006800F008F804E05E
:1024F0000A698968006800F013F8002010BD10B563
:10250000036A046A24F001040462846924F0F0047C
:1025100044EA021423F00A020A438461026210BDF5
:1025200010B5036A23F0100303628369046A23F47D
:10253000704343EA023224F0A00343EA01118261AE
:10254000016210BD10B5806B0021C185C184FFF709
:1025500005FB10BD0168CA6822F49072CA60016868
:102560004A6922F001024A61202180F83A1070473E
:1025700010B590F83A10222901D0022010BD8168D0
:10258000B1F5805F11D00169002901681FD0496849
:1025900001F07F03816A4A1C82620B70C18D491E63
:1025A0000904090CC18518D02BE00269816A002A50
:1025B0000268526805D0D2B20A80816A491C8162E1
:1025C000ECE7C2F308020A80816A891CF7E74A68CF
:1025D000816A4B1C83620A70E0E70168CA6822F0D6
:1025E0002002CA600168CA6822F48072CA60016869
:1025F0004A6922F001024A61202180F83A10FFF76F
:10260000FCFB002010BD00002DE9F04104460068ED
:102610000169E26821F44051114301612169A06818
:10262000E26908436169114308432168CA6849F2B5
:102630000C639A430243CA6020684169A26921F48D
:10264000407111434161E069192764253226B0F5D4
:10265000004F354A354920684FF0000806D08842BF
:1026600001D0904236D1FEF7E7FA35E0884201D03A
:10267000904202D1FEF7E0FA01E0FEF7CDFA616880
:102680004A18A0FB070148EB0803FDF7A1FD01462E
:10269000B0FBF5F00201B1FBF5F06FF01803584301
:1026A00001EB800006EBC000B0FBF5F000F0F80095
:1026B00002EB4002B1FBF5F0584301EB800006EB62
:1026C000C000B0FBF5F000F00700216810448860FE
:1026D000BDE8F081FEF7A0FA61688B0F8A00A0FBCD
:1026E0000701FDF775FD0146B0FBF5F06FF018022C
:1026F000504301EB800006EB0010B0FBF5F000F05A
:10270000F002B1FBF5F002EB0012B1FBF5F06FF057
:102710001803584301EB800006EB0010B0FBF5F006
:1027200000F00F00D1E7000000140140001001404C
:1027300090F83910212901D0022070478168B1F545
:10274000805F016A0BD04A1C0262026809785160FE
:10275000C18C491E0904090CC1840ED017E00988F8
:102760000268C1F30801516001690029016A02D0C1
:10277000491C0162ECE7891CFBE70168CA6822F08A
:102780008002CA600068C16841F04001C160002059
:1027900070472DE9F041984617460E460446069DBF
:1027A0001DE0681C1BD02DB1FEF746F8A0EB080019
:1027B000A84214D92068C16821F4D071C160206892
:1027C000416921F001014161202084F8390084F839
:1027D0003A00002084F838000320BDE8F08120682A
:1027E000006836EA000004D00020B842D9D00020AA
:1027F000F3E70120F9E7000038B5094C20680168CB
:10280000C943890603D44068C0B200F0C7FB206802
:10281000016840680090BDE838400148FFF7A0B962
:10282000CC00002038B5094C20680168C9438906EE
:1028300003D44068C0B200F0B7FB2068016840686C
:102840000090BDE838400148FFF78AB90C0100202C
:10285000FEE700000FB4054B10B503A9044A029827
:1028600000F028F810BC5DF814FB0000192D0008DA
:10287000100000200907090E002804DB00F1E02009
:1028800080F80014704700F00F0000F1E02080F89D
:10289000141D704702E008C8121F08C1002AFAD1AF
:1028A00070477047002001E001C1121F002AFBD1D0
:1028B000704700002DE9FF4F8DB00F4605460026FA
:1028C00006E025280BD0DDE90F1290476D1C761C21
:1028D00028780028F5D111B03046BDE8F08F0024EB
:1028E000A246A1460122EC4900E0044315F8013F4D
:1028F000203B02FA03F00842F7D128782A2810D0AA
:102900006FF02F022878A0F13001092914D80AEBC2
:102910008A0102EB410144F0020400EB010A6D1C44
:10292000F0E701CF5FEA000A03D544F40054CAF18E
:10293000000A44F002046D1C28782E2817D115F8DF
:10294000010F44F004042A280ED06FF02F022878DB
:10295000A0F1300109290AD809EB890102EB4101F4
:1029600000EB01096D1CF2E757F8049B6D1C2878F9
:102970006C280FD006DC4C2817D068280DD06A28A8
:1029800014D104E0742810D07A280FD10DE044F45B
:1029900000140AE044F4801401E044F4401469781F
:1029A000814202D104F580146D1C6D1C2A786E2AB8
:1029B0001FD00CDC632A31D004DC002A8BD0582ACB
:1029C00011D1A3E0642A68D0692A0CD165E0732A8A
:1029D0002ED004DC6F2A73D0702A04D19BE0752AB4
:1029E0006FD0782A6ED01046DDE90F129047761C22
:1029F00050E1C4F30250022806D0032809D004286D
:102A000001CF09D0066045E101CFF117C0E90061AF
:102A100040E101CF06803DE106703BE117F8040B71
:102A20008DF8000000208DF80100EB46012003E046
:102A300057F804BB4FF0FF3061074FF0000102D49C
:102A40000DE008F10101884649450FDA8045F8DBC1
:102A50001BF808100029F4D108E008F101018846AC
:102A60008142FADB1BF808100029F6D1DDE90F23BB
:102A7000AAEB08008146214600F036F9304400EB0D
:102A8000080604E0DDE90F121BF8010B9047B8F1CE
:102A90000108F7D221464846F7E00A21C4F3025361
:102AA0004FF0000B0891022B04D001CFC117032B6C
:102AB00009D00AE0FF1D27F00707F7E8020108E048
:102AC00032E01FE020E000B2C117042B01D140B278
:102AD000C117031E71F1000307DA4FF0000CD0EBB1
:102AE0000C006CEB01012D2302E0230504D52B2300
:102AF0008DF82430012303E0E30701D02023F7E71A
:102B0000984658E00A2110E010210EE010204FF006
:102B1000000B08900CE010214FF0000B44F004046F
:102B20004FF00809089103E008214FF0000B0891CD
:102B3000C4F30253022B04D001CF0021032B06D093
:102B400006E0FF1D27F00707F7E8020103E080B267
:102B5000042B00D1C0B24FF0000823072BD5702AF8
:102B600007D0DDF820C08CF0100C5CEA0B0C05D00F
:102B70000EE040238DF82430012308E050EA0103E1
:102B800006D030238DF824308DF825200223984676
:102B9000DDF820C08CF0080C5CEA0B0C0BD150EA7D
:102BA000010301D1630706D530238DF824304FF09F
:102BB0000108A9F10109582A04D038A20B9208AAE9
:102BC0000A920BE03AA2F9E75B46089AFDF700FB90
:102BD0000B9B9B5C0A9A521E0A92137050EA0102E8
:102BE000F2D10A98ADEB000000F1200B600702D58E
:102BF00024F4803401E04FF00109D94502DDA9EB4E
:102C00000B0000E0002000EB0B0141440890AAEB10
:102C1000010AE00306D4DDE90F232146504600F007
:102C200063F806444FF0000908E009A911F809000B
:102C3000DDE90F12904709F10109761CC145F4DB6B
:102C4000E0030CD5DDE90F232146504600F04CF897
:102C5000064404E0DDE90F1230209047761C089905
:102C6000481E08900029F5DC08E00A980A990078C7
:102C7000491C0A91DDE90F129047761CBBF1000157
:102C8000ABF1010BF1DC21465046DDE90F2300F0EA
:102C900019F806446D1C1BE6092801003031323357
:102CA0003435363738396162636465660000000088
:102CB0003031323334353637383941424344454672
:102CC000000000002DE9F041044600251E4617468D
:102CD000880404D405E039462020B0476D1C641EEA
:102CE000F9D52846BDE8F0812DE9F04104460025DC
:102CF0001E469046C80301D5302700E020278804EF
:102D000004D505E041463846B0476D1C641EF9D530
:102D10002846BDE8F081000013B54FF6FF7301228D
:102D200069460248FFF76AF800981CBD0C010020B4
:102D300090F8000270470000ADF5087D62A2002403
:102D400007CA84AB80948194829483E80700FDF7DE
:102D500081FDFFF7D3FAFDF7B7FD5E48FEF714FCDF
:102D6000FFF7ACF85C48016841F48001016000683D
:102D7000002200F48000839011463820FDF7D6FD34
:102D80003820FDF7C5FD002211463A20FDF7CEFDA3
:102D90003A20FDF7BDFDFFF707F94E484F4998303F
:102DA0004FF4E1350160C0E901540C26C460C0E96C
:102DB00004468461C461FEF75DFF46484849D83047
:102DC0000160C0E90154C460C0E904468461C46183
:102DD000FEF750FFFFF7ACF8FFF702F9414800F0AB
:102DE00034F9414800F031F93E48012287A9803882
:102DF000FEF7DAFF3B48012287A94038FEF7D4FFEF
:102E00003AA0FFF727FD43A0FFF724FD37A0FFF707
:102E100021FD6E463348FFF78BFF012813D10025B3
:102E200004E0304800F0C6F870556D1C2D4800F0E5
:102E3000F2F80028F5D0745569463DA0FFF70AFD69
:102E4000284800F006F92848FFF772FF0128E1D171
:102E5000002504E0244800F0ADF870556D1C2248B0
:102E600000F0D9F80028F5D07455694634A0FFF772
:102E7000F1FC1D4800F0EDF8042235A16846FDF78D
:102E8000EAF90028C6D106208DF81002FF208DF83F
:102E90001102022380AA84A90E48FEF7EFFB9DF8D9
:102EA000012206212CA0FFF7D5FC9DF80112012973
:102EB00002D12FA0FFF7CEFC9DF80122062130A001
:102EC000FFF7C8FCA6E700003D3E3F4041424344B7
:102ED00045460000340000203038024000440040E5
:102EE000001401404C010020580300202D2D2D2DF1
:102EF0002D2D2D2D2D2D2D2D2D2D2D2D2D2D2D2D02
:102F00002D2D2D2D2D2D2D2D2D2D2D2D2D2D2D2DF1
:102F10002D0D0A0020092053504920444D412054D2
:102F20006573742050726F6772616D20200D0A0006
:102F3000756172745F32203A202573200A00000008
:102F4000756172745F36203A202573200A000000F4
:102F50007374747300000000737069312074783AE0
:102F6000253032782072783A25303278200D0A00E8
:102F700073747473203D20253032780D0A000000F0
:102F80005F737069312074783A2530327820727816
:102F90003A25303278200D0A000000000146014831
:102FA00000F01EB84C0100200146014800F018B89E
:102FB0005803002000B5024600F02DF808B1FF20AC
:102FC00000BDD2F80802B0F5007F04DA411CC2F857
:102FD0000812105C00BD0020C2F80802107800BD85
:102FE00010B50C46034600F01FF800280DD10D2C3B
:102FF00002D1012083F80002D3F80402B0F5007F6B
:1030000004DA411CC3F804121C5410BD0020C3F89C
:1030100004021C7010BD00F5017003C8814201D18B
:10302000012070470020704700F5017003C819B9EE
:10303000A0F58072FF3A04D0081A012803D00020BE
:10304000704701207047022070474FF40371FDF76D
:10305000F7B8002180F8001270470006101600062D
:103060001016000000000000000001020304060723
:103070000809000000000102030400009C30000861
:10308000000000201400000094280008B030000860
:1030900014000020140A0000A42800080100000009
:1030A00010000000000000000024F40000000000F8
:040000050800019955
:00000001FF
